{
  "contractName": "FirstPrice",
  "abi": [
    {
      "inputs": [
        {
          "internalType": "uint256",
          "name": "_biddingTime",
          "type": "uint256"
        },
        {
          "internalType": "uint256",
          "name": "_revealTime",
          "type": "uint256"
        },
        {
          "internalType": "string",
          "name": "_item",
          "type": "string"
        }
      ],
      "payable": false,
      "stateMutability": "nonpayable",
      "type": "constructor"
    },
    {
      "anonymous": false,
      "inputs": [
        {
          "indexed": false,
          "internalType": "address",
          "name": "beneficiary",
          "type": "address"
        },
        {
          "indexed": false,
          "internalType": "uint256",
          "name": "biddingEnd",
          "type": "uint256"
        },
        {
          "indexed": false,
          "internalType": "uint256",
          "name": "revealEnd",
          "type": "uint256"
        },
        {
          "indexed": false,
          "internalType": "string",
          "name": "item",
          "type": "string"
        }
      ],
      "name": "AuctionCreated",
      "type": "event"
    },
    {
      "anonymous": false,
      "inputs": [
        {
          "indexed": false,
          "internalType": "address",
          "name": "winner",
          "type": "address"
        },
        {
          "indexed": false,
          "internalType": "uint256",
          "name": "finalPrice",
          "type": "uint256"
        }
      ],
      "name": "AuctionEnded",
      "type": "event"
    },
    {
      "anonymous": false,
      "inputs": [
        {
          "indexed": false,
          "internalType": "address",
          "name": "bidder",
          "type": "address"
        },
        {
          "indexed": false,
          "internalType": "bytes32",
          "name": "blindedBid",
          "type": "bytes32"
        }
      ],
      "name": "BidMade",
      "type": "event"
    },
    {
      "anonymous": false,
      "inputs": [
        {
          "indexed": false,
          "internalType": "address",
          "name": "oldBidder",
          "type": "address"
        },
        {
          "indexed": false,
          "internalType": "uint256",
          "name": "oldValue",
          "type": "uint256"
        },
        {
          "indexed": false,
          "internalType": "bool",
          "name": "doesReplace",
          "type": "bool"
        }
      ],
      "name": "PlaceBidFirst",
      "type": "event"
    },
    {
      "anonymous": false,
      "inputs": [
        {
          "indexed": false,
          "internalType": "address",
          "name": "bidder",
          "type": "address"
        },
        {
          "indexed": false,
          "internalType": "uint256",
          "name": "bidValue",
          "type": "uint256"
        },
        {
          "indexed": false,
          "internalType": "bool",
          "name": "isCorrect",
          "type": "bool"
        }
      ],
      "name": "RevealMade",
      "type": "event"
    },
    {
      "constant": false,
      "inputs": [],
      "name": "auctionEnd",
      "outputs": [
        {
          "internalType": "address payable",
          "name": "",
          "type": "address"
        }
      ],
      "payable": false,
      "stateMutability": "nonpayable",
      "type": "function"
    },
    {
      "constant": false,
      "inputs": [
        {
          "internalType": "bytes32",
          "name": "_blindedBid",
          "type": "bytes32"
        }
      ],
      "name": "bid",
      "outputs": [],
      "payable": false,
      "stateMutability": "nonpayable",
      "type": "function"
    },
    {
      "constant": true,
      "inputs": [
        {
          "internalType": "address",
          "name": "",
          "type": "address"
        }
      ],
      "name": "bids",
      "outputs": [
        {
          "internalType": "bytes32",
          "name": "blindedBid",
          "type": "bytes32"
        },
        {
          "internalType": "uint256",
          "name": "value",
          "type": "uint256"
        }
      ],
      "payable": false,
      "stateMutability": "view",
      "type": "function"
    },
    {
      "constant": true,
      "inputs": [],
      "name": "details",
      "outputs": [
        {
          "internalType": "address payable",
          "name": "beneficiary",
          "type": "address"
        },
        {
          "internalType": "uint256",
          "name": "biddingEnd",
          "type": "uint256"
        },
        {
          "internalType": "uint256",
          "name": "revealEnd",
          "type": "uint256"
        },
        {
          "internalType": "bool",
          "name": "ended",
          "type": "bool"
        },
        {
          "internalType": "string",
          "name": "item",
          "type": "string"
        }
      ],
      "payable": false,
      "stateMutability": "view",
      "type": "function"
    },
    {
      "constant": true,
      "inputs": [],
      "name": "fetchBid",
      "outputs": [
        {
          "components": [
            {
              "internalType": "bytes32",
              "name": "blindedBid",
              "type": "bytes32"
            },
            {
              "internalType": "uint256",
              "name": "value",
              "type": "uint256"
            }
          ],
          "internalType": "struct AuctionParent.Bid",
          "name": "returnBid",
          "type": "tuple"
        }
      ],
      "payable": false,
      "stateMutability": "view",
      "type": "function"
    },
    {
      "constant": true,
      "inputs": [
        {
          "internalType": "address",
          "name": "bidder",
          "type": "address"
        }
      ],
      "name": "fetchBidFromAddress",
      "outputs": [
        {
          "components": [
            {
              "internalType": "bytes32",
              "name": "blindedBid",
              "type": "bytes32"
            },
            {
              "internalType": "uint256",
              "name": "value",
              "type": "uint256"
            }
          ],
          "internalType": "struct AuctionParent.Bid",
          "name": "returnBid",
          "type": "tuple"
        }
      ],
      "payable": false,
      "stateMutability": "view",
      "type": "function"
    },
    {
      "constant": true,
      "inputs": [],
      "name": "fetchDetails",
      "outputs": [
        {
          "components": [
            {
              "internalType": "address payable",
              "name": "beneficiary",
              "type": "address"
            },
            {
              "internalType": "uint256",
              "name": "biddingEnd",
              "type": "uint256"
            },
            {
              "internalType": "uint256",
              "name": "revealEnd",
              "type": "uint256"
            },
            {
              "internalType": "bool",
              "name": "ended",
              "type": "bool"
            },
            {
              "internalType": "string",
              "name": "item",
              "type": "string"
            }
          ],
          "internalType": "struct AuctionParent.Details",
          "name": "",
          "type": "tuple"
        }
      ],
      "payable": false,
      "stateMutability": "view",
      "type": "function"
    },
    {
      "constant": true,
      "inputs": [],
      "name": "requiredBid",
      "outputs": [
        {
          "internalType": "uint256",
          "name": "",
          "type": "uint256"
        }
      ],
      "payable": false,
      "stateMutability": "view",
      "type": "function"
    },
    {
      "constant": true,
      "inputs": [],
      "name": "requiredBidder",
      "outputs": [
        {
          "internalType": "address payable",
          "name": "",
          "type": "address"
        }
      ],
      "payable": false,
      "stateMutability": "view",
      "type": "function"
    },
    {
      "constant": false,
      "inputs": [
        {
          "internalType": "uint256",
          "name": "value",
          "type": "uint256"
        }
      ],
      "name": "reveal",
      "outputs": [],
      "payable": false,
      "stateMutability": "nonpayable",
      "type": "function"
    }
  ],
  "bytecode": "0x60806040523480156200001157600080fd5b506040516200153f3803806200153f833981810160405262000037919081019062000257565b82823383816000800160006101000a81548173ffffffffffffffffffffffffffffffffffffffff021916908373ffffffffffffffffffffffffffffffffffffffff16021790555083420160006001018190555082600060010154016000600201819055508060006004019080519060200190620000b692919062000135565b507fa3d19677a52b6dff051e5813011905526090505e00fcea83c604776ad5ebfd686000800160009054906101000a900473ffffffffffffffffffffffffffffffffffffffff16600060010154600060020154600060040160405162000120949392919062000383565b60405180910390a1505050505050506200050e565b828054600181600116156101000203166002900490600052602060002090601f016020900481019282601f106200017857805160ff1916838001178555620001a9565b82800160010185558215620001a9579182015b82811115620001a85782518255916020019190600101906200018b565b5b509050620001b89190620001bc565b5090565b620001e191905b80821115620001dd576000816000905550600101620001c3565b5090565b90565b600082601f830112620001f657600080fd5b81516200020d620002078262000405565b620003d7565b915080825260208301602083018583830111156200022a57600080fd5b62000237838284620004be565b50505092915050565b6000815190506200025181620004f4565b92915050565b6000806000606084860312156200026d57600080fd5b60006200027d8682870162000240565b9350506020620002908682870162000240565b925050604084015167ffffffffffffffff811115620002ae57600080fd5b620002bc86828701620001e4565b9150509250925092565b620002d18162000482565b82525050565b600081546001811660008114620002f7576001811462000320576200036a565b607f60028304166200030a818762000447565b955060ff1983168652602086019350506200036a565b6002820462000330818762000447565b95506200033d8562000432565b60005b82811015620003615781548189015260018201915060208101905062000340565b80880195505050505b505092915050565b6200037d8162000478565b82525050565b60006080820190506200039a6000830187620002c6565b620003a9602083018662000372565b620003b8604083018562000372565b8181036060830152620003cc8184620002d7565b905095945050505050565b6000604051905081810181811067ffffffffffffffff82111715620003fb57600080fd5b8060405250919050565b600067ffffffffffffffff8211156200041d57600080fd5b601f19601f8301169050602081019050919050565b60008190508160005260206000209050919050565b600082825260208201905092915050565b600073ffffffffffffffffffffffffffffffffffffffff82169050919050565b6000819050919050565b60006200048f8262000496565b9050919050565b6000620004a382620004aa565b9050919050565b6000620004b78262000458565b9050919050565b60005b83811015620004de578082015181840152602081019050620004c1565b83811115620004ee576000848401525b50505050565b620004ff8162000478565b81146200050b57600080fd5b50565b611021806200051e6000396000f3fe608060405234801561001057600080fd5b506004361061009e5760003560e01c806362ea82db1161006657806362ea82db1461013d578063957bb1e01461016e578063980e0c8d1461018a578063c2ca0ac5146101a8578063e10521cf146101c45761009e565b80630f38f2b1146100a357806312d7bcb6146100c15780632a24f46c146100df578063565974d3146100fd5780635ced33341461011f575b600080fd5b6100ab6101f4565b6040516100b89190610e1a565b60405180910390f35b6100c961025f565b6040516100d69190610e35565b60405180910390f35b6100e7610398565b6040516100f49190610cca565b60405180910390f35b6101056104e5565b604051610116959493929190610d97565b60405180910390f35b6101276105ce565b6040516101349190610e57565b60405180910390f35b61015760048036036101529190810190610a70565b6105d4565b604051610165929190610df1565b60405180910390f35b61018860048036036101839190810190610a99565b6105f8565b005b6101926106b3565b60405161019f9190610cca565b60405180910390f35b6101c260048036036101bd9190810190610ac2565b6106d9565b005b6101de60048036036101d99190810190610a70565b610843565b6040516101eb9190610e1a565b60405180910390f35b6101fc6109cd565b600560003373ffffffffffffffffffffffffffffffffffffffff1673ffffffffffffffffffffffffffffffffffffffff16815260200190815260200160002060405180604001604052908160008201548152602001600182015481525050905090565b6102676109ea565b61026f6109ea565b6040518060a001604052806000800160009054906101000a900473ffffffffffffffffffffffffffffffffffffffff1673ffffffffffffffffffffffffffffffffffffffff1681526020014260006001015403815260200142600060020154038152602001600060030160009054906101000a900460ff161515815260200160006004018054600181600116156101000203166002900480601f0160208091040260200160405190810160405280929190818152602001828054600181600116156101000203166002900480156103875780601f1061035c57610100808354040283529160200191610387565b820191906000526020600020905b81548152906001019060200180831161036a57829003601f168201915b505050505081525090508091505090565b600080600201548042116103ab57600080fd5b600060030160009054906101000a900460ff16156103c857600080fd5b6001600060030160006101000a81548160ff0219169083151502179055506103ee6108b0565b60006007541461047f577fdaec4582d5d9595688c8c98545fdd1c696d41c6aeaeb636737e84ed2f5c00eda600660009054906101000a900473ffffffffffffffffffffffffffffffffffffffff1660075460405161044d929190610d37565b60405180910390a1600660009054906101000a900473ffffffffffffffffffffffffffffffffffffffff1691506104e1565b7fdaec4582d5d9595688c8c98545fdd1c696d41c6aeaeb636737e84ed2f5c00eda6000806040516104b1929190610d0e565b60405180910390a16000800160009054906101000a900473ffffffffffffffffffffffffffffffffffffffff1691505b5090565b60008060000160009054906101000a900473ffffffffffffffffffffffffffffffffffffffff16908060010154908060020154908060030160009054906101000a900460ff1690806004018054600181600116156101000203166002900480601f0160208091040260200160405190810160405280929190818152602001828054600181600116156101000203166002900480156105c45780601f10610599576101008083540402835291602001916105c4565b820191906000526020600020905b8154815290600101906020018083116105a757829003601f168201915b5050505050905085565b60075481565b60056020528060005260406000206000915090508060000154908060010154905082565b60006001015480421061060a57600080fd5b60405180604001604052808381526020016000815250600560003373ffffffffffffffffffffffffffffffffffffffff1673ffffffffffffffffffffffffffffffffffffffff16815260200190815260200160002060008201518160000155602082015181600101559050507f304904e309eae6fcf26e0f188d310e1408d24a4dadfccbd550ebbb282ba4c68233836040516106a7929190610ce5565b60405180910390a15050565b600660009054906101000a900473ffffffffffffffffffffffffffffffffffffffff1681565b6000600101548042116106eb57600080fd5b6000600201548042106106fd57600080fd5b8260405160200161070e9190610caf565b60405160208183030381529060405280519060200120600560003373ffffffffffffffffffffffffffffffffffffffff1673ffffffffffffffffffffffffffffffffffffffff16815260200190815260200160002060000154146107ad577f05fa1a5b3feffbf3f88f4ac2e34a97c40f8301e7580729414582c139f0b50cc1338460006040516107a093929190610d60565b60405180910390a161083e565b6107b733846108b2565b6000801b600560003373ffffffffffffffffffffffffffffffffffffffff1673ffffffffffffffffffffffffffffffffffffffff168152602001908152602001600020600001819055507f05fa1a5b3feffbf3f88f4ac2e34a97c40f8301e7580729414582c139f0b50cc13384600160405161083593929190610d60565b60405180910390a15b505050565b61084b6109cd565b600560008373ffffffffffffffffffffffffffffffffffffffff1673ffffffffffffffffffffffffffffffffffffffff168152602001908152602001600020604051806040016040529081600082015481526020016001820154815250509050919050565b565b6007548111610920577f019e9530650dc0caaa4bff21d691090dc34fd01eb302a5136e5a9cbc57aaceab600660009054906101000a900473ffffffffffffffffffffffffffffffffffffffff16600754600060405161091393929190610d60565b60405180910390a16109c9565b7f019e9530650dc0caaa4bff21d691090dc34fd01eb302a5136e5a9cbc57aaceab600660009054906101000a900473ffffffffffffffffffffffffffffffffffffffff16600754600160405161097893929190610d60565b60405180910390a18060078190555081600660006101000a81548173ffffffffffffffffffffffffffffffffffffffff021916908373ffffffffffffffffffffffffffffffffffffffff1602179055505b5050565b604051806040016040528060008019168152602001600081525090565b6040518060a00160405280600073ffffffffffffffffffffffffffffffffffffffff1681526020016000815260200160008152602001600015158152602001606081525090565b600081359050610a4081610f99565b92915050565b600081359050610a5581610fb0565b92915050565b600081359050610a6a81610fc7565b92915050565b600060208284031215610a8257600080fd5b6000610a9084828501610a31565b91505092915050565b600060208284031215610aab57600080fd5b6000610ab984828501610a46565b91505092915050565b600060208284031215610ad457600080fd5b6000610ae284828501610a5b565b91505092915050565b610af481610f03565b82525050565b610b0381610eb1565b82525050565b610b1281610eb1565b82525050565b610b2181610ec3565b82525050565b610b3081610ec3565b82525050565b610b3f81610ecf565b82525050565b610b4e81610ecf565b82525050565b610b5d81610f15565b82525050565b6000610b6e82610e72565b610b788185610e7d565b9350610b88818560208601610f4b565b610b9181610f88565b840191505092915050565b6000610ba782610e72565b610bb18185610e8e565b9350610bc1818560208601610f4b565b610bca81610f88565b840191505092915050565b604082016000820151610beb6000850182610b36565b506020820151610bfe6020850182610c7a565b50505050565b600060a083016000830151610c1c6000860182610afa565b506020830151610c2f6020860182610c7a565b506040830151610c426040860182610c7a565b506060830151610c556060860182610b18565b5060808301518482036080860152610c6d8282610b63565b9150508091505092915050565b610c8381610ef9565b82525050565b610c9281610ef9565b82525050565b610ca9610ca482610ef9565b610f7e565b82525050565b6000610cbb8284610c98565b60208201915081905092915050565b6000602082019050610cdf6000830184610b09565b92915050565b6000604082019050610cfa6000830185610aeb565b610d076020830184610b45565b9392505050565b6000604082019050610d236000830185610aeb565b610d306020830184610b54565b9392505050565b6000604082019050610d4c6000830185610aeb565b610d596020830184610c89565b9392505050565b6000606082019050610d756000830186610aeb565b610d826020830185610c89565b610d8f6040830184610b27565b949350505050565b600060a082019050610dac6000830188610b09565b610db96020830187610c89565b610dc66040830186610c89565b610dd36060830185610b27565b8181036080830152610de58184610b9c565b90509695505050505050565b6000604082019050610e066000830185610b45565b610e136020830184610c89565b9392505050565b6000604082019050610e2f6000830184610bd5565b92915050565b60006020820190508181036000830152610e4f8184610c04565b905092915050565b6000602082019050610e6c6000830184610c89565b92915050565b600081519050919050565b600082825260208201905092915050565b600082825260208201905092915050565b6000610eaa82610ed9565b9050919050565b6000610ebc82610ed9565b9050919050565b60008115159050919050565b6000819050919050565b600073ffffffffffffffffffffffffffffffffffffffff82169050919050565b6000819050919050565b6000610f0e82610f27565b9050919050565b6000610f2082610ef9565b9050919050565b6000610f3282610f39565b9050919050565b6000610f4482610ed9565b9050919050565b60005b83811015610f69578082015181840152602081019050610f4e565b83811115610f78576000848401525b50505050565b6000819050919050565b6000601f19601f8301169050919050565b610fa281610e9f565b8114610fad57600080fd5b50565b610fb981610ecf565b8114610fc457600080fd5b50565b610fd081610ef9565b8114610fdb57600080fd5b5056fea365627a7a723158205bce84116122499b25512d9ba4bdc2ee5728e701bc645adb2cb7b57b8d58a7556c6578706572696d656e74616cf564736f6c63430005100040",
  "source": "// pragma solidity >0.4.23 <0.7.0;\npragma solidity ^0.5.16;\npragma experimental ABIEncoderV2;\ncontract AuctionParent {\n    struct Bid {\n        // the hash\n        bytes32 blindedBid;\n        uint value;\n    }\n\n    // seller input stuff\n    struct Details {\n        address payable beneficiary;\n        uint biddingEnd;\n        uint revealEnd;\n        bool ended;\n        string item;\n    }\n    Details public details;\n\n    mapping(address => Bid) public bids;\n\n    address payable public requiredBidder;\n    uint public requiredBid;\n\n    /// Ensures time reqiurements\n    modifier onlyBefore(uint _time) { require(block.timestamp < _time); _; }\n    modifier onlyAfter(uint _time) { require(block.timestamp > _time); _; }\n\n    \n    event AuctionCreated ( \n        address beneficiary,\n        uint biddingEnd,\n        uint revealEnd,\n        string item \n    );\n    constructor(\n        uint _biddingTime,\n        uint _revealTime,\n        address payable _beneficiary,\n        string memory _item\n    ) internal {\n        details.beneficiary = _beneficiary;\n        details.biddingEnd = block.timestamp + _biddingTime;\n        details.revealEnd = details.biddingEnd + _revealTime;\n        details.item = _item;\n        emit AuctionCreated(\n            details.beneficiary,\n            details.biddingEnd,\n            details.revealEnd,\n            details.item \n        );\n    }\n\n    event BidMade (\n        address bidder,\n        bytes32 blindedBid\n    );\n    /// Send the bit _blindedBid is the hash of the amount\n    function bid(bytes32 _blindedBid)\n        public\n        onlyBefore(details.biddingEnd) // must be before the auction ends.\n    {\n        bids[msg.sender] = Bid({\n            blindedBid: _blindedBid,\n            value: 0\n        }); // Only single bid is allowed.\n        emit BidMade(\n            msg.sender,\n            _blindedBid\n        );\n    }\n\n    event RevealMade(\n        address bidder,\n        uint bidValue,\n        bool isCorrect\n    );\n    /// Reveal your blinded bids. \n    function reveal(uint value)\n        public\n        onlyAfter(details.biddingEnd) \n        onlyBefore(details.revealEnd) \n    {\n        if (bids[msg.sender].blindedBid != keccak256(abi.encodePacked(value))) {\n            // Bid was not actually revealed.\n            // Do not refund deposit.\n            emit RevealMade(\n                msg.sender,\n                value,\n                false\n            );\n            return;\n        }\n\n        placeBid(msg.sender, value);\n        /// Make it impossible for the sender to re-claim\n        bids[msg.sender].blindedBid = bytes32(0);\n        emit RevealMade(\n            msg.sender,\n            value,\n            true\n        );\n    }\n    /// The appropriate bid \n    function placeBid(address payable bidder, uint value) internal\n    {\n        require(true, \"Child class does not have the appropriate function\");\n    }\n\n    /// End the auction and send the highest bid to the beneficiary.\n    event AuctionEnded(\n        address winner,\n        uint finalPrice\n    );\n    function auctionEnd()\n        public\n        onlyAfter(details.revealEnd)\n        returns (address payable)\n    {\n        require(!details.ended);\n        details.ended = true;\n        endTrigger();\n        if(requiredBid != 0) {\n            emit AuctionEnded(requiredBidder, requiredBid);\n            return requiredBidder;\n        }\n        emit AuctionEnded(address(0), 0);\n        return details.beneficiary;\n    }\n    \n    function endTrigger() internal {\n        require(true, \"Child class does not have the appropriate function\");\n        return;\n    }\n\n    function fetchDetails() public view returns (Details memory) {\n        Details memory newDetails = Details(\n            details.beneficiary,\n            details.biddingEnd - block.timestamp,\n            details.revealEnd - block.timestamp,\n            details.ended,\n            details.item\n        );\n\n        return newDetails;\n    }\n    function fetchBid() public view returns (Bid memory returnBid) {\n        return bids[msg.sender];\n    }\n\n    function fetchBidFromAddress(address bidder) \n            public view returns (Bid memory returnBid) \n    {\n        return bids[bidder];\n    }\n}\n\ncontract FirstPrice is AuctionParent {\n    /// The highest bid is the winner\n    constructor(\n        uint _biddingTime,\n        uint _revealTime,\n        string memory _item\n    ) public AuctionParent(_biddingTime, _revealTime, msg.sender, _item) { }\n    \n    event PlaceBidFirst(\n        address oldBidder,\n        uint oldValue,\n        bool doesReplace\n    );\n\n    function placeBid(address payable bidder, uint value) internal \n    {\n        if (value <= requiredBid) {\n            emit PlaceBidFirst(\n                requiredBidder,\n                requiredBid,\n                false\n            );\n            return;\n        }\n        emit PlaceBidFirst(\n            requiredBidder,\n            requiredBid,\n            true\n        );\n        requiredBid = value;\n        requiredBidder = bidder;\n    }\n    \n    function endTrigger() internal {\n        // no triggers\n        return;\n    }\n}\n\ncontract SecondPrice is AuctionParent {\n    /// The highest bid is the winner but the price is second highest\n    uint public highestBid;\n    constructor(\n        uint _biddingTime,\n        uint _revealTime,\n        string memory _item\n    ) public AuctionParent(_biddingTime, _revealTime, msg.sender, _item) { }\n    \n    event PlaceBidSecond(\n        address oldBidder,\n        uint oldValue,\n        bool doesReplace\n    );\n\n    function placeBid(address payable bidder, uint value) internal \n    {\n        if (value <= highestBid) {\n            emit PlaceBidSecond(\n                requiredBidder,\n                requiredBid,\n                false\n            );\n            return;\n        }\n        if (requiredBidder == address(0)) {\n            // To ensure that the first bidder does not have to pay 0\n            highestBid = value;\n        }\n        emit PlaceBidSecond(\n            requiredBidder,\n            requiredBid,\n            true \n        );\n        requiredBid = highestBid; // the new 2nd highest bid\n        highestBid = value;\n        requiredBidder = bidder;\n    }\n    \n    function endTrigger() internal {\n        // no triggers\n        return;\n    }\n}\n\ncontract AveragePrice is AuctionParent {\n    // The bid closest to the average bid is the winner.\n    mapping(address => uint) public bidValues;\n    mapping(uint => address payable) public bidders;\n    mapping (uint => address payable) public validBidders;\n    uint bidderCount = 0;\n    \n    constructor(\n        uint _biddingTime,\n        uint _revealTime,\n        string memory _item\n    ) public AuctionParent(_biddingTime, _revealTime, msg.sender, _item) { }\n    \n    function placeBid(address payable bidder, uint value) internal \n    {\n        // can be assumed that the bid is valid since the verification happens\n        // first.\n        bidders[bidderCount] = bidder;\n        bidderCount += 1;\n        bidValues[bidder] = value;\n    }\n    \n    // calculating the average of the valid bids\n    function endTrigger() internal {\n        uint total = 0;\n        \n        // The bid was valid which means that it must be considered \n        // for average and for final winner.\n        for (uint i = 0; i < bidderCount; i++) {\n            total += bidValues[bidders[i]];\n        }\n        \n        // Now we have the list of the bidders and the total value\n        // We find the closest to average value bid and return the rest of it.\n        address payable closestBidder = bidders[0];\n        uint closestValue = bidValues[closestBidder];\n\n        for (uint i = 1; i < bidderCount; i++) {\n            address payable currentBidder = bidders[i];\n            uint currentValue = bidValues[currentBidder];\n            \n            int difference1 = int(closestValue) * int(bidderCount) - int(total);\n            difference1 = difference1 >= 0 ? difference1 : -1 * difference1;\n            \n            int difference2 = int(currentValue) * int(bidderCount) - int(total);\n            difference2 = difference2 >= 0 ? difference2 : -1 * difference2;\n            \n            if (difference2 < difference1) {\n                // the new value is closer to the average\n                closestBidder = currentBidder;\n                closestValue = currentValue;\n            }\n        }\n\n        // setting the requiredBidder and the value\n        bids[closestBidder].blindedBid = bytes32(0);\n        requiredBidder = closestBidder;\n        requiredBid = closestValue;\n        return;\n    }\n}\n",
  "sourcePath": "/home/ishaanshah/Smart-Contract-2.0/contracts/Auction.sol",
  "compiler": {
    "name": "solc",
    "version": "0.5.16+commit.9c3226ce.Emscripten.clang"
  },
  "schemaVersion": "3.4.3",
  "updatedAt": "2021-10-11T20:40:59.973Z",
  "devdoc": {
    "methods": {}
  },
  "userdoc": {
    "methods": {
      "bid(bytes32)": {
        "notice": "Send the bit _blindedBid is the hash of the amount"
      },
      "constructor": "The highest bid is the winner",
      "reveal(uint256)": {
        "notice": "Reveal your blinded bids. "
      }
    }
  }
}