{
  "contractName": "Marketplace",
  "abi": [
    {
      "inputs": [],
      "payable": false,
      "stateMutability": "nonpayable",
      "type": "constructor"
    },
    {
      "anonymous": false,
      "inputs": [
        {
          "indexed": true,
          "internalType": "uint256",
          "name": "listingID",
          "type": "uint256"
        },
        {
          "indexed": false,
          "internalType": "string",
          "name": "itemName",
          "type": "string"
        },
        {
          "indexed": false,
          "internalType": "uint256",
          "name": "askingPrice",
          "type": "uint256"
        },
        {
          "indexed": false,
          "internalType": "address",
          "name": "uniqueSellerID",
          "type": "address"
        }
      ],
      "name": "ListingCreated",
      "type": "event"
    },
    {
      "anonymous": false,
      "inputs": [
        {
          "indexed": false,
          "internalType": "uint256",
          "name": "listingID",
          "type": "uint256"
        },
        {
          "indexed": false,
          "internalType": "string",
          "name": "itemName",
          "type": "string"
        },
        {
          "indexed": false,
          "internalType": "uint256",
          "name": "askingPrice",
          "type": "uint256"
        },
        {
          "indexed": false,
          "internalType": "address",
          "name": "uniqueSellerID",
          "type": "address"
        },
        {
          "indexed": false,
          "internalType": "address",
          "name": "uniqueBuyerID",
          "type": "address"
        }
      ],
      "name": "ListingDelivered",
      "type": "event"
    },
    {
      "anonymous": false,
      "inputs": [
        {
          "indexed": false,
          "internalType": "uint256",
          "name": "listingID",
          "type": "uint256"
        },
        {
          "indexed": false,
          "internalType": "string",
          "name": "itemName",
          "type": "string"
        },
        {
          "indexed": false,
          "internalType": "uint256",
          "name": "askingPrice",
          "type": "uint256"
        },
        {
          "indexed": true,
          "internalType": "address",
          "name": "uniqueSellerID",
          "type": "address"
        },
        {
          "indexed": false,
          "internalType": "address",
          "name": "uniqueBuyerID",
          "type": "address"
        }
      ],
      "name": "ListingSold",
      "type": "event"
    },
    {
      "constant": true,
      "inputs": [],
      "name": "itemSold",
      "outputs": [
        {
          "internalType": "uint256",
          "name": "",
          "type": "uint256"
        }
      ],
      "payable": false,
      "stateMutability": "view",
      "type": "function"
    },
    {
      "constant": true,
      "inputs": [],
      "name": "owner",
      "outputs": [
        {
          "internalType": "address payable",
          "name": "",
          "type": "address"
        }
      ],
      "payable": false,
      "stateMutability": "view",
      "type": "function"
    },
    {
      "constant": false,
      "inputs": [
        {
          "internalType": "uint256",
          "name": "price",
          "type": "uint256"
        },
        {
          "internalType": "string",
          "name": "itemName",
          "type": "string"
        },
        {
          "internalType": "string",
          "name": "itemDesc",
          "type": "string"
        },
        {
          "internalType": "string",
          "name": "item",
          "type": "string"
        }
      ],
      "name": "createListing",
      "outputs": [],
      "payable": true,
      "stateMutability": "payable",
      "type": "function"
    },
    {
      "constant": true,
      "inputs": [],
      "name": "fetchMarketItems",
      "outputs": [
        {
          "components": [
            {
              "internalType": "uint256",
              "name": "listingID",
              "type": "uint256"
            },
            {
              "internalType": "string",
              "name": "itemName",
              "type": "string"
            },
            {
              "internalType": "string",
              "name": "itemDesc",
              "type": "string"
            },
            {
              "internalType": "uint256",
              "name": "askingPrice",
              "type": "uint256"
            },
            {
              "internalType": "address payable",
              "name": "uniqueSellerID",
              "type": "address"
            },
            {
              "internalType": "address",
              "name": "uniqueBuyerID",
              "type": "address"
            },
            {
              "internalType": "string",
              "name": "item",
              "type": "string"
            },
            {
              "internalType": "enum Marketplace.State",
              "name": "state",
              "type": "uint8"
            }
          ],
          "internalType": "struct Marketplace.Listing[]",
          "name": "",
          "type": "tuple[]"
        }
      ],
      "payable": false,
      "stateMutability": "view",
      "type": "function"
    },
    {
      "constant": true,
      "inputs": [],
      "name": "fetchUserItems",
      "outputs": [
        {
          "components": [
            {
              "internalType": "uint256",
              "name": "listingID",
              "type": "uint256"
            },
            {
              "internalType": "string",
              "name": "itemName",
              "type": "string"
            },
            {
              "internalType": "string",
              "name": "itemDesc",
              "type": "string"
            },
            {
              "internalType": "uint256",
              "name": "askingPrice",
              "type": "uint256"
            },
            {
              "internalType": "address payable",
              "name": "uniqueSellerID",
              "type": "address"
            },
            {
              "internalType": "address",
              "name": "uniqueBuyerID",
              "type": "address"
            },
            {
              "internalType": "string",
              "name": "item",
              "type": "string"
            },
            {
              "internalType": "enum Marketplace.State",
              "name": "state",
              "type": "uint8"
            }
          ],
          "internalType": "struct Marketplace.Listing[]",
          "name": "",
          "type": "tuple[]"
        }
      ],
      "payable": false,
      "stateMutability": "view",
      "type": "function"
    },
    {
      "constant": false,
      "inputs": [
        {
          "internalType": "uint256",
          "name": "itemId",
          "type": "uint256"
        }
      ],
      "name": "buyListing",
      "outputs": [
        {
          "internalType": "string",
          "name": "",
          "type": "string"
        }
      ],
      "payable": false,
      "stateMutability": "nonpayable",
      "type": "function"
    },
    {
      "constant": false,
      "inputs": [
        {
          "internalType": "uint256",
          "name": "itemId",
          "type": "uint256"
        }
      ],
      "name": "confirmListing",
      "outputs": [],
      "payable": true,
      "stateMutability": "payable",
      "type": "function"
    },
    {
      "constant": false,
      "inputs": [
        {
          "internalType": "uint256",
          "name": "itemId",
          "type": "uint256"
        },
        {
          "internalType": "string",
          "name": "item",
          "type": "string"
        }
      ],
      "name": "relistListing",
      "outputs": [],
      "payable": false,
      "stateMutability": "nonpayable",
      "type": "function"
    },
    {
      "constant": false,
      "inputs": [],
      "name": "killMarketplace",
      "outputs": [],
      "payable": false,
      "stateMutability": "nonpayable",
      "type": "function"
    }
  ],
  "bytecode": "0x60806040526000600155600060025534801561001a57600080fd5b50336000806101000a81548173ffffffffffffffffffffffffffffffffffffffff021916908373ffffffffffffffffffffffffffffffffffffffff1602179055506120cc8061006a6000396000f3fe6080604052600436106100865760003560e01c80635ff03120116100595780635ff031201461013a5780637c24c226146101565780638da5cb5b14610181578063988caa2f146101ac578063cffe3732146101d557610086565b80630f08efe01461008b578063438e897a146100b65780634884f459146100e15780635cf87b5f1461011e575b600080fd5b34801561009757600080fd5b506100a06101ec565b6040516100ad9190611c69565b60405180910390f35b3480156100c257600080fd5b506100cb6105ed565b6040516100d89190611dc9565b60405180910390f35b3480156100ed57600080fd5b506101086004803603610103919081019061170b565b6105f3565b6040516101159190611c8b565b60405180910390f35b6101386004803603610133919081019061170b565b610814565b005b610154600480360361014f919081019061178c565b610aae565b005b34801561016257600080fd5b5061016b610cf4565b6040516101789190611c69565b60405180910390f35b34801561018d57600080fd5b50610196611189565b6040516101a39190611c4e565b60405180910390f35b3480156101b857600080fd5b506101d360048036036101ce9190810190611734565b6111ae565b005b3480156101e157600080fd5b506101ea611372565b005b60606000600254600154039050600080905060608260405190808252806020026020018201604052801561023a57816020015b61022761143b565b81526020019060019003908161021f5790505b50905060008090505b6001548110156105e3576000600281111561025a57fe5b6003600083815260200190815260200160002060070160009054906101000a900460ff16600281111561028957fe5b14156105d6576102976114b7565b600360008381526020019081526020016000206040518061010001604052908160008201548152602001600182018054600181600116156101000203166002900480601f0160208091040260200160405190810160405280929190818152602001828054600181600116156101000203166002900480156103595780601f1061032e57610100808354040283529160200191610359565b820191906000526020600020905b81548152906001019060200180831161033c57829003601f168201915b50505050508152602001600282018054600181600116156101000203166002900480601f0160208091040260200160405190810160405280929190818152602001828054600181600116156101000203166002900480156103fb5780601f106103d0576101008083540402835291602001916103fb565b820191906000526020600020905b8154815290600101906020018083116103de57829003601f168201915b50505050508152602001600382015481526020016004820160009054906101000a900473ffffffffffffffffffffffffffffffffffffffff1673ffffffffffffffffffffffffffffffffffffffff1673ffffffffffffffffffffffffffffffffffffffff1681526020016005820160009054906101000a900473ffffffffffffffffffffffffffffffffffffffff1673ffffffffffffffffffffffffffffffffffffffff1673ffffffffffffffffffffffffffffffffffffffff168152602001600682018054600181600116156101000203166002900480601f0160208091040260200160405190810160405280929190818152602001828054600181600116156101000203166002900480156105535780601f1061052857610100808354040283529160200191610553565b820191906000526020600020905b81548152906001019060200180831161053657829003601f168201915b505050505081526020016007820160009054906101000a900460ff16600281111561057a57fe5b600281111561058557fe5b8152505090508083858151811061059857fe5b6020026020010181905250604051806020016040528060008152508385815181106105bf57fe5b602002602001015160c00181905250600184019350505b8080600101915050610243565b5080935050505090565b60025481565b6060336003600084815260200190815260200160002060050160006101000a81548173ffffffffffffffffffffffffffffffffffffffff021916908373ffffffffffffffffffffffffffffffffffffffff16021790555060016003600084815260200190815260200160002060070160006101000a81548160ff0219169083600281111561067d57fe5b021790555060016002600082825401925050819055506003600083815260200190815260200160002060040160009054906101000a900473ffffffffffffffffffffffffffffffffffffffff1673ffffffffffffffffffffffffffffffffffffffff167f99f13ee19bdec9101ec7eeb4c725fb82e6c38560fecd782b02230541e8a3f9ba6003600085815260200190815260200160002060000154600360008681526020019081526020016000206001016003600087815260200190815260200160002060030154336040516107569493929190611de4565b60405180910390a2600360008381526020019081526020016000206006018054600181600116156101000203166002900480601f0160208091040260200160405190810160405280929190818152602001828054600181600116156101000203166002900480156108085780601f106107dd57610100808354040283529160200191610808565b820191906000526020600020905b8154815290600101906020018083116107eb57829003601f168201915b50505050509050919050565b6001600281111561082157fe5b6003600083815260200190815260200160002060070160009054906101000a900460ff16600281111561085057fe5b1480156108be57503373ffffffffffffffffffffffffffffffffffffffff166003600083815260200190815260200160002060050160009054906101000a900473ffffffffffffffffffffffffffffffffffffffff1673ffffffffffffffffffffffffffffffffffffffff16145b6108fd576040517f08c379a00000000000000000000000000000000000000000000000000000000081526004016108f490611da9565b60405180910390fd5b60026003600083815260200190815260200160002060070160006101000a81548160ff0219169083600281111561093057fe5b02179055506003600082815260200190815260200160002060040160009054906101000a900473ffffffffffffffffffffffffffffffffffffffff1673ffffffffffffffffffffffffffffffffffffffff166108fc60036000848152602001908152602001600020600301549081150290604051600060405180830381858888f193505050506109f5576040517f08c379a00000000000000000000000000000000000000000000000000000000081526004016109ec90611d89565b60405180910390fd5b7fbba688306dcab082417023373a6920b8c4828729ae0643362650117c0cbbc2e760036000838152602001908152602001600020600001546003600084815260200190815260200160002060010160036000858152602001908152602001600020600301546003600086815260200190815260200160002060040160009054906101000a900473ffffffffffffffffffffffffffffffffffffffff1633604051610aa3959493929190611e30565b60405180910390a150565b60008411610af1576040517f08c379a0000000000000000000000000000000000000000000000000000000008152600401610ae890611d29565b60405180910390fd5b60405180610100016040528060015481526020018481526020018381526020018581526020013373ffffffffffffffffffffffffffffffffffffffff168152602001600073ffffffffffffffffffffffffffffffffffffffff16815260200182815260200160006002811115610b6357fe5b815250600360006001548152602001908152602001600020600082015181600001556020820151816001019080519060200190610ba1929190611533565b506040820151816002019080519060200190610bbe929190611533565b506060820151816003015560808201518160040160006101000a81548173ffffffffffffffffffffffffffffffffffffffff021916908373ffffffffffffffffffffffffffffffffffffffff16021790555060a08201518160050160006101000a81548173ffffffffffffffffffffffffffffffffffffffff021916908373ffffffffffffffffffffffffffffffffffffffff16021790555060c0820151816006019080519060200190610c73929190611533565b5060e08201518160070160006101000a81548160ff02191690836002811115610c9857fe5b02179055509050506001547f745b3dfe762065dfb3f74abe31fd4c30f096502cfe515d15da5ff3c9fd61d8a2848633604051610cd693929190611cad565b60405180910390a26001806000828254019250508190555050505050565b606060006002546001540390506000809050606082604051908082528060200260200182016040528015610d4257816020015b610d2f61143b565b815260200190600190039081610d275790505b50905060008090505b60015481101561117f573373ffffffffffffffffffffffffffffffffffffffff166003600083815260200190815260200160002060040160009054906101000a900473ffffffffffffffffffffffffffffffffffffffff1673ffffffffffffffffffffffffffffffffffffffff161480610e2657503373ffffffffffffffffffffffffffffffffffffffff166003600083815260200190815260200160002060050160009054906101000a900473ffffffffffffffffffffffffffffffffffffffff1673ffffffffffffffffffffffffffffffffffffffff16145b1561117257610e336114b7565b600360008381526020019081526020016000206040518061010001604052908160008201548152602001600182018054600181600116156101000203166002900480601f016020809104026020016040519081016040528092919081815260200182805460018160011615610100020316600290048015610ef55780601f10610eca57610100808354040283529160200191610ef5565b820191906000526020600020905b815481529060010190602001808311610ed857829003601f168201915b50505050508152602001600282018054600181600116156101000203166002900480601f016020809104026020016040519081016040528092919081815260200182805460018160011615610100020316600290048015610f975780601f10610f6c57610100808354040283529160200191610f97565b820191906000526020600020905b815481529060010190602001808311610f7a57829003601f168201915b50505050508152602001600382015481526020016004820160009054906101000a900473ffffffffffffffffffffffffffffffffffffffff1673ffffffffffffffffffffffffffffffffffffffff1673ffffffffffffffffffffffffffffffffffffffff1681526020016005820160009054906101000a900473ffffffffffffffffffffffffffffffffffffffff1673ffffffffffffffffffffffffffffffffffffffff1673ffffffffffffffffffffffffffffffffffffffff168152602001600682018054600181600116156101000203166002900480601f0160208091040260200160405190810160405280929190818152602001828054600181600116156101000203166002900480156110ef5780601f106110c4576101008083540402835291602001916110ef565b820191906000526020600020905b8154815290600101906020018083116110d257829003601f168201915b505050505081526020016007820160009054906101000a900460ff16600281111561111657fe5b600281111561112157fe5b8152505090508083858151811061113457fe5b60200260200101819052506040518060200160405280600081525083858151811061115b57fe5b602002602001015160c00181905250600184019350505b8080600101915050610d4b565b5080935050505090565b6000809054906101000a900473ffffffffffffffffffffffffffffffffffffffff1681565b6002808111156111ba57fe5b6003600085815260200190815260200160002060070160009054906101000a900460ff1660028111156111e957fe5b1415801561125857503373ffffffffffffffffffffffffffffffffffffffff166003600085815260200190815260200160002060040160009054906101000a900473ffffffffffffffffffffffffffffffffffffffff1673ffffffffffffffffffffffffffffffffffffffff16145b611297576040517f08c379a000000000000000000000000000000000000000000000000000000000815260040161128e90611d69565b60405180910390fd5b60006003600085815260200190815260200160002060070160006101000a81548160ff021916908360028111156112ca57fe5b021790555081816003600086815260200190815260200160002060060191906112f49291906115b3565b506001600260008282540392505081905550827f745b3dfe762065dfb3f74abe31fd4c30f096502cfe515d15da5ff3c9fd61d8a26003600086815260200190815260200160002060010160036000878152602001908152602001600020600301543360405161136593929190611ceb565b60405180910390a2505050565b6000809054906101000a900473ffffffffffffffffffffffffffffffffffffffff1673ffffffffffffffffffffffffffffffffffffffff163373ffffffffffffffffffffffffffffffffffffffff1614611401576040517f08c379a00000000000000000000000000000000000000000000000000000000081526004016113f890611d49565b60405180910390fd5b6000809054906101000a900473ffffffffffffffffffffffffffffffffffffffff1673ffffffffffffffffffffffffffffffffffffffff16ff5b60405180610100016040528060008152602001606081526020016060815260200160008152602001600073ffffffffffffffffffffffffffffffffffffffff168152602001600073ffffffffffffffffffffffffffffffffffffffff16815260200160608152602001600060028111156114b157fe5b81525090565b60405180610100016040528060008152602001606081526020016060815260200160008152602001600073ffffffffffffffffffffffffffffffffffffffff168152602001600073ffffffffffffffffffffffffffffffffffffffff168152602001606081526020016000600281111561152d57fe5b81525090565b828054600181600116156101000203166002900490600052602060002090601f016020900481019282601f1061157457805160ff19168380011785556115a2565b828001600101855582156115a2579182015b828111156115a1578251825591602001919060010190611586565b5b5090506115af9190611633565b5090565b828054600181600116156101000203166002900490600052602060002090601f016020900481019282601f106115f457803560ff1916838001178555611622565b82800160010185558215611622579182015b82811115611621578235825591602001919060010190611606565b5b50905061162f9190611633565b5090565b61165591905b80821115611651576000816000905550600101611639565b5090565b90565b60008083601f84011261166a57600080fd5b8235905067ffffffffffffffff81111561168357600080fd5b60208301915083600182028301111561169b57600080fd5b9250929050565b600082601f8301126116b357600080fd5b81356116c66116c182611eb7565b611e8a565b915080825260208301602083018583830111156116e257600080fd5b6116ed838284612012565b50505092915050565b60008135905061170581612072565b92915050565b60006020828403121561171d57600080fd5b600061172b848285016116f6565b91505092915050565b60008060006040848603121561174957600080fd5b6000611757868287016116f6565b935050602084013567ffffffffffffffff81111561177457600080fd5b61178086828701611658565b92509250509250925092565b600080600080608085870312156117a257600080fd5b60006117b0878288016116f6565b945050602085013567ffffffffffffffff8111156117cd57600080fd5b6117d9878288016116a2565b935050604085013567ffffffffffffffff8111156117f657600080fd5b611802878288016116a2565b925050606085013567ffffffffffffffff81111561181f57600080fd5b61182b878288016116a2565b91505092959194509250565b60006118438383611b72565b905092915050565b61185481611fca565b82525050565b61186381611f7b565b82525050565b61187281611f7b565b82525050565b61188181611f69565b82525050565b600061189282611f08565b61189c8185611f36565b9350836020820285016118ae85611ee3565b8060005b858110156118ea57848403895281516118cb8582611837565b94506118d683611f29565b925060208a019950506001810190506118b2565b50829750879550505050505092915050565b61190581611fdc565b82525050565b600061191682611f1e565b6119208185611f58565b9350611930818560208601612021565b61193981612054565b840191505092915050565b600061194f82611f13565b6119598185611f47565b9350611969818560208601612021565b61197281612054565b840191505092915050565b60008154600181166000811461199a57600181146119c057611a04565b607f60028304166119ab8187611f58565b955060ff198316865260208601935050611a04565b600282046119ce8187611f58565b95506119d985611ef3565b60005b828110156119fb578154818901526001820191506020810190506119dc565b80880195505050505b505092915050565b6000611a19601b83611f58565b91507f5072696365206d7573742062652061746c6561737420312077656900000000006000830152602082019050919050565b6000611a59602783611f58565b91507f4f6e6c7920746865206f776e65722063616e206b696c6c20746865206d61726b60008301527f6574706c616365000000000000000000000000000000000000000000000000006020830152604082019050919050565b6000611abf600c83611f58565b91507f43616e27742072656c69737400000000000000000000000000000000000000006000830152602082019050919050565b6000611aff601283611f58565b91507f4661696c656420746f207472616e7366657200000000000000000000000000006000830152602082019050919050565b6000611b3f600d83611f58565b91507f43616e277420636f6e6669726d000000000000000000000000000000000000006000830152602082019050919050565b600061010083016000830151611b8b6000860182611c30565b5060208301518482036020860152611ba38282611944565b91505060408301518482036040860152611bbd8282611944565b9150506060830151611bd26060860182611c30565b506080830151611be5608086018261185a565b5060a0830151611bf860a0860182611878565b5060c083015184820360c0860152611c108282611944565b91505060e0830151611c2560e08601826118fc565b508091505092915050565b611c3981611fc0565b82525050565b611c4881611fc0565b82525050565b6000602082019050611c636000830184611869565b92915050565b60006020820190508181036000830152611c838184611887565b905092915050565b60006020820190508181036000830152611ca5818461190b565b905092915050565b60006060820190508181036000830152611cc7818661190b565b9050611cd66020830185611c3f565b611ce3604083018461184b565b949350505050565b60006060820190508181036000830152611d05818661197d565b9050611d146020830185611c3f565b611d21604083018461184b565b949350505050565b60006020820190508181036000830152611d4281611a0c565b9050919050565b60006020820190508181036000830152611d6281611a4c565b9050919050565b60006020820190508181036000830152611d8281611ab2565b9050919050565b60006020820190508181036000830152611da281611af2565b9050919050565b60006020820190508181036000830152611dc281611b32565b9050919050565b6000602082019050611dde6000830184611c3f565b92915050565b6000608082019050611df96000830187611c3f565b8181036020830152611e0b818661197d565b9050611e1a6040830185611c3f565b611e27606083018461184b565b95945050505050565b600060a082019050611e456000830188611c3f565b8181036020830152611e57818761197d565b9050611e666040830186611c3f565b611e73606083018561184b565b611e80608083018461184b565b9695505050505050565b6000604051905081810181811067ffffffffffffffff82111715611ead57600080fd5b8060405250919050565b600067ffffffffffffffff821115611ece57600080fd5b601f19601f8301169050602081019050919050565b6000819050602082019050919050565b60008190508160005260206000209050919050565b600081519050919050565b600081519050919050565b600081519050919050565b6000602082019050919050565b600082825260208201905092915050565b600082825260208201905092915050565b600082825260208201905092915050565b6000611f7482611fa0565b9050919050565b6000611f8682611fa0565b9050919050565b6000819050611f9b82612065565b919050565b600073ffffffffffffffffffffffffffffffffffffffff82169050919050565b6000819050919050565b6000611fd582611fee565b9050919050565b6000611fe782611f8d565b9050919050565b6000611ff982612000565b9050919050565b600061200b82611fa0565b9050919050565b82818337600083830152505050565b60005b8381101561203f578082015181840152602081019050612024565b8381111561204e576000848401525b50505050565b6000601f19601f8301169050919050565b6003811061206f57fe5b50565b61207b81611fc0565b811461208657600080fd5b5056fea365627a7a72315820916a7234e1f16689d630919f8bdd766c7d0e2721545f9cf86f1a2faceee4145a6c6578706572696d656e74616cf564736f6c63430005100040",
  "source": "// SPDX-License-Identifier: MIT\npragma solidity ^0.5.16;\npragma experimental ABIEncoderV2;\n\n\n/// @title Marketplace for selling items\n/// @author Aakash Jain, Ishaan Shah, Zeeshan Ahmed\n/// @notice View, sell, and buy items\n/// @dev It is assumed that the seller will deliver after getting paid\ncontract Marketplace {\n    /// @dev Possible states that a Listing can take\n    enum State { UNSOLD, SOLD, DELIVERED }\n\n    /// @dev Stores the details of a listing\n    struct Listing {\n        uint listingID;\n        string itemName;\n        string itemDesc;\n        uint256 askingPrice;\n        address payable uniqueSellerID;\n        address uniqueBuyerID;\n        string item;\n        State state;\n    }\n\n    address payable public owner;\n    uint private itemCount = 0;\n    uint public itemSold = 0;\n\n    /// @dev mapping for all the Listing\n    mapping(uint256 => Listing) private listings;\n\n    /// @notice Triggered to store the details of a listing on transaction logs\n    /// @dev Must not store the item itself for privacy\n    /// @param listingID Unique Id for the listing \n    /// @param itemName Name of the item\n    /// @param askingPrice Price set by the seller\n    /// @param uniqueSellerID The public key for the transaction\n    event ListingCreated ( \n        uint indexed listingID,\n        string itemName,\n        uint askingPrice,\n        address uniqueSellerID\n    );\n\n    /// @notice Constructor to define the marketplace owner\n    constructor() public {\n        owner = msg.sender;\n    }\n\n    /// @notice Function to add listing to the Marketplace\n    /// @dev Triggers the event for logging\n    /// @param price Price set by the seller\n    /// @param itemName Name of the item\n    /// @param itemDesc Description of the item set by seller\n    /// @param item String to be sold\n    function createListing(\n        uint256 price,\n        string memory itemName,\n        string memory itemDesc,\n        string memory item\n    ) public payable {\n        require(price > 0, \"Price must be atleast 1 wei\");\n\n        listings[itemCount] = Listing(\n            itemCount,\n            itemName,\n            itemDesc,\n            price,\n            msg.sender,\n            address(0),\n            item,\n            State.UNSOLD\n        );\n\n        emit ListingCreated(\n            itemCount,\n            itemName,\n            price,\n            msg.sender\n        );\n        itemCount += 1;\n    }\n\n\n    /// @notice Triggered to store the details of the sold listing on transaction logs\n    /// @dev Must not store the item itself for privacy\n    /// @param listingID Unique Id for the listing \n    /// @param itemName Name of the item\n    /// @param askingPrice Price set by the seller\n    /// @param uniqueSellerID The public key for the transaction\n    /// @param uniqueBuyerID The public key for the transaction\n    event ListingSold (\n        uint listingID,\n        string itemName,\n        uint askingPrice,\n        address indexed uniqueSellerID,\n        address uniqueBuyerID\n    );\n\n    /// @notice Triggered to store the details of the delivery of a listing on transaction logs\n    /// @dev Must not store the item itself for privacy\n    /// @param listingID Unique Id for the listing \n    /// @param itemName Name of the item\n    /// @param askingPrice Price set by the seller\n    /// @param uniqueSellerID The public key for the transaction\n    /// @param uniqueBuyerID The public key for the transaction\n    event ListingDelivered (\n        uint listingID,\n        string itemName,\n        uint askingPrice,\n        address uniqueSellerID,\n        address uniqueBuyerID\n    );\n\n\n    /// @notice Function to print all the active listings\n    /// @dev Listing password is being filtered from listings\n    /// @return Listing The list of all active listings\n    function fetchMarketItems() public view returns (Listing[] memory) {\n        uint unsoldItemCount = itemCount - itemSold;\n        uint currentIndex = 0;\n\n        Listing[] memory items = new Listing[](unsoldItemCount);\n        for (uint i = 0; i < itemCount; i++) {\n            if (listings[i].state == State.UNSOLD) {\n                Listing memory currentItem = listings[i];\n                items[currentIndex] = currentItem;\n                items[currentIndex].item = \"\";\n                currentIndex += 1;\n            }\n        }\n        return items;\n    }\n\n    /// @notice Function to print all listings of a particular user\n    /// @dev Listing password is being filtered from listings\n    /// @return Listing The list of all listings of a certain address\n    function fetchUserItems() public view returns (Listing[] memory) {\n        uint unsoldItemCount = itemCount - itemSold;\n        uint currentIndex = 0;\n\n        Listing[] memory items = new Listing[](unsoldItemCount);\n        for (uint i = 0; i < itemCount; i++) {\n            if (listings[i].uniqueSellerID == msg.sender || listings[i].uniqueBuyerID == msg.sender) {\n                Listing memory currentItem = listings[i];\n                items[currentIndex] = currentItem;\n                items[currentIndex].item = \"\";\n                currentIndex += 1;\n            }\n        }\n        return items;\n    }\n\n\n    /// @notice Function to buy a listing\n    /// @dev Triggers the event for logging\n    /// @param itemId The item the buyer wants to buy\n    function buyListing(uint itemId) external returns(string memory) {\n        listings[itemId].uniqueBuyerID = msg.sender;\n        listings[itemId].state = State.SOLD;\n        itemSold += 1;\n\n        emit ListingSold(\n            listings[itemId].listingID,\n            listings[itemId].itemName,\n            listings[itemId].askingPrice,\n            listings[itemId].uniqueSellerID,\n            msg.sender\n        );\n\n        return listings[itemId].item;\n    }\n\n    /// @notice Function to confirm a listing\n    /// @dev Triggers the event for logging\n    /// @param itemId The item the buyer wants to confirm\n    function confirmListing(uint itemId) external payable {\n        require(listings[itemId].state == State.SOLD && listings[itemId].uniqueBuyerID == msg.sender, \"Can't confirm\");\n        listings[itemId].state = State.DELIVERED;\n        require(listings[itemId].uniqueSellerID.send(listings[itemId].askingPrice), \"Failed to transfer\");\n\n        emit ListingDelivered(\n            listings[itemId].listingID,\n            listings[itemId].itemName,\n            listings[itemId].askingPrice,\n            listings[itemId].uniqueSellerID,\n            msg.sender\n        );\n    }\n\n    /// @notice Function to allow seller to relist the item if the buyer doesn't send correct amount of Ether, doesn't confirm the delivery or change the password\n    /// @param itemId The item the buyer wants to confirm\n    /// @param item The new item (i.e the hashed password)\n    function relistListing(uint itemId, string calldata item) external {\n        require(listings[itemId].state != State.DELIVERED && listings[itemId].uniqueSellerID == msg.sender, \"Can't relist\");\n        listings[itemId].state = State.UNSOLD;\n        listings[itemId].item = item;\n        itemSold -= 1;\n\n        emit ListingCreated(\n            itemId,\n            listings[itemId].itemName,\n            listings[itemId].askingPrice,\n            msg.sender\n        );\n    }\n\n    /// @notice Function that clears the marketplace\n    /// @dev Useful for testing \n    function killMarketplace() external {\n        require(msg.sender == owner, \"Only the owner can kill the marketplace\");\n        selfdestruct(owner);\n    }\n}\n\n",
  "sourcePath": "/home/ishaanshah/Smart-Contract-2.0/contracts/Marketplace.sol",
  "compiler": {
    "name": "solc",
    "version": "0.5.16+commit.9c3226ce.Emscripten.clang"
  },
  "schemaVersion": "3.4.3",
  "updatedAt": "2021-10-11T22:26:28.456Z",
  "networkType": "ethereum",
  "devdoc": {
    "author": "Aakash Jain, Ishaan Shah, Zeeshan Ahmed",
    "details": "It is assumed that the seller will deliver after getting paid",
    "methods": {
      "buyListing(uint256)": {
        "details": "Triggers the event for logging",
        "params": {
          "itemId": "The item the buyer wants to buy"
        }
      },
      "confirmListing(uint256)": {
        "details": "Triggers the event for logging",
        "params": {
          "itemId": "The item the buyer wants to confirm"
        }
      },
      "createListing(uint256,string,string,string)": {
        "details": "Triggers the event for logging",
        "params": {
          "item": "String to be sold",
          "itemDesc": "Description of the item set by seller",
          "itemName": "Name of the item",
          "price": "Price set by the seller"
        }
      },
      "fetchMarketItems()": {
        "details": "Listing password is being filtered from listings",
        "return": "Listing The list of all active listings"
      },
      "fetchUserItems()": {
        "details": "Listing password is being filtered from listings",
        "return": "Listing The list of all listings of a certain address"
      },
      "killMarketplace()": {
        "details": "Useful for testing "
      },
      "relistListing(uint256,string)": {
        "params": {
          "item": "The new item (i.e the hashed password)",
          "itemId": "The item the buyer wants to confirm"
        }
      }
    },
    "title": "Marketplace for selling items"
  },
  "userdoc": {
    "methods": {
      "buyListing(uint256)": {
        "notice": "Function to buy a listing"
      },
      "confirmListing(uint256)": {
        "notice": "Function to confirm a listing"
      },
      "constructor": "Constructor to define the marketplace owner",
      "createListing(uint256,string,string,string)": {
        "notice": "Function to add listing to the Marketplace"
      },
      "fetchMarketItems()": {
        "notice": "Function to print all the active listings"
      },
      "fetchUserItems()": {
        "notice": "Function to print all listings of a particular user"
      },
      "killMarketplace()": {
        "notice": "Function that clears the marketplace"
      },
      "relistListing(uint256,string)": {
        "notice": "Function to allow seller to relist the item if the buyer doesn't send correct amount of Ether, doesn't confirm the delivery or change the password"
      }
    },
    "notice": "View, sell, and buy items"
  }
}